:020000040800F2
:10000000E80600202102000893100008FB0F0008FA
:100010009110000897040008CD12000800000000AD
:10002000000000000000000000000000D5100008E3
:10003000990400080000000095100008D71000087F
:100040003B0200083B0200083B0200083B0200089C
:100050003B0200083B0200083B0200083B0200088C
:100060003B0200083B0200083B0200083B0200087C
:100070003B0200083B0200083B0200083B0200086C
:100080003B0200083B0200083B0200083B0200085C
:100090003B0200083B0200083B0200083B0200084C
:1000A0003B0200083B0200083B0200083B0200083C
:1000B0003B0200083B0200083B0200083B0200082C
:1000C0003B0200083B0200083B0200083B0200081C
:1000D0003B0200083B0200083B0200083B0200080C
:1000E0003B0200083B0200083B0200083B020008FC
:1000F0003B0200083B0200083B0200083B020008EC
:100100003B0200083B0200083B0200083B020008DB
:100110003B0200083B0200083B0200083B020008CB
:100120003B0200083B0200083B0200083B020008BB
:100130003B0200083B0200083B0200083B020008AB
:100140003B0200083B0200083B0200083B0200089B
:100150003B0200083B0200083B0200083B0200088B
:100160003B0200083B0200083B0200083B0200087B
:100170003B0200083B0200083B02000800000000B0
:100180003B02000800F002F800F03AF80AA090E8FC
:10019000000C82448344AAF10107DA4501D100F042
:1001A0002FF8AFF2090EBAE80F0013F0010F18BFD5
:1001B000FB1A43F001031847241200004412000008
:1001C000103A24BF78C878C1FAD8520724BF30C883
:1001D00030C144BF04680C60704700000023002455
:1001E00000250026103A28BF78C1FBD8520728BF47
:1001F00030C148BF0B6070471FB51FBD10B510BDA3
:1002000000F00FF91146FFF7F7FF01F071F800F069
:100210002DF903B4FFF7F2FF03BC00F035F900003D
:100220000948804709480047FEE7FEE7FEE7FEE78A
:10023000FEE7FEE7FEE7FEE7FEE7FEE704480549C6
:10024000054A064B7047000043110008850100086D
:10025000E8000020E8060020E8020020E802002074
:1002600053EA020C00F069802DE9F04B4FF00006D4
:10027000002B1FBFB3FA83F503FA05F424FA05F641
:100280005E4012BF1643B2FA82F502FA05F4C5F1D8
:1002900020051EBF22FA05FC44EA0C04203556EA6C
:1002A000044C4FEA144418BF641C4FF000084FF090
:1002B0000009904271EB030C39D3002919BFB1FA40
:1002C00081F701FA07F6B0FA80F700FA07F6C7F1EE
:1002D00020071EBF20FA07FC46EA0C062037B6FBB3
:1002E000F4FCA7EB0507103F07F01F0BCBF120062E
:1002F0000CFA0BFB2CFA06F644BFB3460026202F5F
:10030000A4BF5E464FF0000B5BEA060C08BF4FF03F
:10031000010B19EB0B09ABFB027C48EB0608C01B79
:1003200006FB02CC0BFB03CC71EB0C01C1E70B46C7
:10033000024641464846BDE8F08B13B54FF0000039
:100340004FF00001AFF30080BDE81C4070474FF054
:10035000000200B5134694469646203922BFA0E815
:100360000C50A0E80C50B1F12001BFF4F7AF090721
:1003700028BFA0E80C5048BF0CC05DF804EB890012
:1003800028BF40F8042B08BF704748BF20F8022B55
:1003900011F0804F18BF00F8012B70474FF0013C5F
:1003A00050F8042B51F8043B9A4221D1A2EB0C03E4
:1003B000934313EACC1317D150F8042B51F8043BA4
:1003C0009A4215D1A2EB0C03934313EACC130BD141
:1003D00050F8042B51F8043B9A4209D1A2EB0C03CC
:1003E000934313EACC13DBD04FF00000704700BFFB
:1003F000D01A01BAB1FA81F101F0180122FA01F024
:10040000CB40C1F12001DBB2C0B2C01A2CFA01F31B
:10041000D11A914311EAC311E6D170477047704772
:100420007047754600F02CF8AE4605006946534605
:1004300020F00700854618B020B5FFF7FFFEBDE8A5
:1004400020404FF000064FF000074FF000084FF03B
:10045000000B21F00701AC46ACE8C009ACE8C009CC
:10046000ACE8C009ACE8C0098D46704710B5044639
:10047000AFF300802046BDE81040FFF7CABE000081
:10048000004870478800002001491820ABBEFEE7F5
:10049000260002007047FEE7704700002DE9F04F8C
:1004A000DFF85092002309F1040A012603250AF11E
:1004B000040B85B00F270BF1040E12E1224606FA59
:1004C00003F422407ED091F804C00CF0030CBCF180
:1004D000010F02D0BCF1020F26D1D0F80880CDF870
:1004E00000804FEA430805FA08FCCDF81080DDF8DB
:1004F000008028EA0C08CDF80080D1F80CC0DDF8A7
:1005000010800CFA08FCDDF800804CEA080CC0F8FA
:1005100008C0D0F804C02CEA040C0C79C4F3001411
:100520009C4044EA0C0444600C79E443A40712D0D4
:10053000C4684FEA430CCDF808C005FA0CFC24EA65
:100540000C04D1F80880DDF808C008FA0CF848EA75
:100550000408C0F80C800C7904F00304022C16D1B6
:10056000DC0800EB840CCDF808C0DCF820C05C0788
:100570004FEAD46807FA08F42CEA040C0C6904FA70
:1005800008F444EA0C04DDF808C0CCF82040046804
:100590004FEA430805FA08FC24EA0C0491F804C069
:1005A0000CF0030C0CFA08FC4CEA040CC0F800C078
:1005B0004C6814F4403F05D04F4CD4F800C04CF4C4
:1005C000804C00E08CE0C4F800C0246823F0030CE9
:1005D00004F480440094494C64440294D4F80848DC
:1005E0004FEA837C4FEA1C7807FA08FC24EA0C04E3
:1005F000DFF80CC1604502D14FF0000C39E0DFF8A4
:1006000004C1604502D14FF0010C32E0DFF8F8C0C0
:10061000604502D14FF0020C2BE0DFF8F0C06045DE
:1006200002D14FF0030C24E0DFF8E4C0604502D1B2
:100630004FF0040C1DE0DFF8DCC0604502D14FF044
:10064000050C16E0DFF8D0C0604502D14FF0060C73
:100650000FE0DFF8C8C0604502D14FF0070C08E09A
:10066000DFF8BCC0604502D14FF0080C01E04FF04C
:10067000090C0CFA08FC4CEA040C029CC4F808C8EB
:10068000D9F80040CC46D1F8048094435FEAC838DA
:1006900000D51443CCF80040DAF80040D446D1F835
:1006A000048094435FEA883800D51443CCF80040B6
:1006B000DBF80040DC46D1F8048094435FEAC828A8
:1006C00000D51443CCF80040DEF80040F446D1F8E1
:1006D000048094435FEA882800D51443CCF8004096
:1006E0005B1C0A681446DA407FF4E8AE05B0BDE84A
:1006F000F08F0000003C01404438024000300140CF
:10070000000002400004024000080240000C0240C9
:10071000001002400014024000180240001C024079
:10072000002002400069084000D0012070470AB153
:10073000816170470904FBE7014880687047000049
:1007400000000020024881680278114481607047EF
:10075000000000200B4810B5016841F400710160F1
:10076000016841F480610160016841F480710160B9
:10077000032000F061F8002000F006F800F024F8F3
:10078000002010BD003C024070B50D4D04464FF4F2
:100790007A712878B1FBF0F00A490968B1FBF0F0F2
:1007A00000F0F6FA48B9102C07D200222146501E5C
:1007B00000F022F800206C6070BD012070BD0000C8
:1007C000000000200C0000200A4808B5016841F430
:1007D00080410160006800F4804000900548001FDF
:1007E000016841F080510160006800F08050009085
:1007F00008BD000044380240F0B40E4B1B680C46A4
:10080000C3F30223C3F10705042D00D90425191DE4
:10081000072901D2002300E0DB1E012606FA05F1BC
:10082000491E214099409E40761E16403143F0BC3F
:1008300000F04DBD0CED00E0064900F0070208682D
:100840004FF6FF03184040EA0220034A10430860B5
:10085000704700000CED00E00000FA052DE9F047BC
:100860000E46050063D0DFF81C81D8F80000F7B20F
:1008700000F00F00B04207D288F80070D8F80000EE
:1008800000F00F00B04252D128683F4C810712D5CA
:10089000400703D5206840F4E05020602878000726
:1008A00003D5206840F4604020602068A96820F0EB
:1008B000F000084320602878C0072BD032496868D0
:1008C0000839012810D00968022810D089070029AA
:1008D0002DDA216821F0030101432160FFF72CFF8D
:1008E000814641F2883A0EE009688903EFE7890101
:1008F000EDE700BFFFF720FFA0EB0901514502D94A
:100900000320BDE8F0872068696800F00C00B0EBB8
:10091000810FEFD1D8F80010404601F00F01B1422D
:1009200007D90770006800F00F00B04201D0012025
:10093000E7E72878400705D52068E96820F4E0500B
:10094000084320602878000706D52068296920F42C
:10095000604040EAC100206000F04EF82168F022BB
:1009600092FAA2F201F0F001B2FA82F2D140074A03
:10097000515CC8400649086006480068FFF704FF5C
:100980000020BEE7003C024008380240C4130008C3
:100990000C0000200400002008480949006809688C
:1009A0004FF4E05292FAA2F201F4E051B2FA82F26C
:1009B000D140044A515CC840704700000C00002040
:1009C00008380240D413000808480949006809683B
:1009D0004FF4604292FAA2F201F46041B2FA82F25C
:1009E000D140044A515CC840704700000C00002010
:1009F00008380240D4130008154810B5006810F0FC
:100A00000C02144813D04110042A0FD0082A0ED12A
:100A10000F4C241F2268236802F03F025B0207D5B7
:100A20002068C0F38810A0FB010106E0084610BD55
:100A30002168C1F38811A1FB00010023FFF710FC1E
:100A40002168C1F30141491C4900B0FBF1F010BD20
:100A5000083802400024F4002DE9F84F04007BD050
:100A6000DFF814B32078ABF10406C007A6F1040543
:100A700036D0DBF800105846C1F38101012907D0B8
:100A80000068C0F38100022809D13068400206D511
:100A90002868800324D560680028E0D020E0B649AB
:100AA0002079891F0870606868B1FFF745FE074626
:100AB00005E000BFFFF740FEC01B642876D8286819
:100AC0008003F7D50CE0FFF737FE074605E000BFCF
:100AD000FFF732FEC01B6428F0D828688003F7D4E3
:100AE0002078DFF8988280074FF0000944D5DBF8C2
:100AF0000010584611F00C0F4FF0F80A07D00068AC
:100B0000C0F38100022809D13068400206D4286869
:100B1000800715D5E06801281ED111E0E068E0B13A
:100B20000120C8F80000FFF707FE074605E000BFF8
:100B3000FFF702FEC01B0228C0D828688007F7D53F
:100B400028689AFAAAF22169B2FA82F220F0F80033
:100B50009140084328600FE00AE1C8F80090FFF7D1
:100B6000EBFD074605E000BFFFF7E6FDC01B0228CE
:100B70001CD828688007F7D42078000727D5DFF82D
:100B8000F8A17F4861690AF16C0A81B10121016015
:100B9000FFF7D2FD074604E0FFF7CEFDC01B022899
:100BA00004D8DAF800008007F6D510E082E0C0F83B
:100BB0000090FFF7C1FD074605E000BFFFF7BCFD51
:100BC000C01B022876D8DAF800008007F6D4207817
:100BD00040075FD5DFF8A0A100270AF1380ADAF84C
:100BE0000000C0000BD4DAF8001041F08051CAF8C0
:100BF0000010DAF80000012700F0805000906148F2
:100C0000016841F4807101600168C90512D401686E
:100C100041F480710160FFF78FFD009006E000BF96
:100C2000FFF78AFD0099401A02287ED855480068CF
:100C3000C005F5D55049207A68310870A06888B1A0
:100C4000FFF77AFD009007E0FFF776FD0099411A63
:100C500041F28830814268D8474868300068800790
:100C6000F2D510E0FFF768FD009007E0FFF764FDA4
:100C70000099411A41F28830814256D83E48683086
:100C800000688007F2D42FB1DAF8001021F080510B
:100C9000CAF80010A069B8B3DBF80010C1F38101F5
:100CA000022949D00228C8F8609004D0FFF744FD1B
:100CB00004463DE039E0FFF73FFD074605E000BF91
:100CC000FFF73AFDC01B64282FD828688001F7D4AD
:100CD000D4E907010843616A94F82C20890141EAAC
:100CE00002610843A16A284A490802EB014108430E
:100CF0003168264A1140084330600120C8F860007E
:100D0000FFF71AFD044606E034E000BFFFF714FDCC
:100D1000001B642809D828688001F7D52AE000BFA5
:100D2000FFF70AFD001B642802D90320BDE8F88FF5
:100D300028688001F4D41DE00128F7D03068E2690A
:100D400000F48001914213D1226A00F03F019142E8
:100D50000ED1616AC0F38812914209D1A26A00F4EF
:100D60004031914204D1E16A00F07060884201D0C4
:100D70000120DBE70020D9E70838024000004742A5
:100D8000800E4742007000400000FFFF0080BCF072
:100D900010B5401EB0F1807F01D3012010BD4FF08F
:100DA000E02460610F21601700F091FA0020A0613B
:100DB00007202061002010BD70B5040004D094F815
:100DC0003D00002510B106E0012070BD84F83C50C4
:100DD000204600F023F8242084F83D002068C168F4
:100DE00021F40051C160204600F0ACF9206801698F
:100DF00021F4904101612068416921F02A0141619B
:100E00002068C16841F40051C1602564202084F845
:100E10003D0084F83E00002070BD000010B586B093
:100E2000044614216846FFF792FA14492068884264
:100E300021D113480021026842F0200202600068BC
:100E400000F0200005900E481438026842F040027D
:100E50000260006800F0400005904FF4844000906C
:100E60000220CDE901010320039008200490694687
:100E70000448FFF713FB06B010BD0000001401404A
:100E800044380240001802402DE9F84F044690F81B
:100E90003E009A4616460D46202853D1FDB1F6B1C4
:100EA00094F83C0001284DD0012084F83C00002734
:100EB0002764222084F83E002763FFF73DFCA685C7
:100EC0008146E685A0684FF48058404501D12069ED
:100ED00040B12E465FF0000584F83C7027E0012009
:100EE000BDE8F88F0026F7E74B4600222021204678
:100EF000CDF800A000F0B8F908B10320F0E726B162
:100F0000A06840451BD038B108E020684068C0F3B5
:100F1000080025F8020B07E0206980B120684068CE
:100F200000F07F0006F8010BE08D401EE085E08DAB
:100F30000028D9D1202084F83E000020D0E7206886
:100F40004068EFE70220CBE72DE9F843044690F82C
:100F50003D001F4616460D4620284CD1C5B1BEB1F6
:100F600094F83C00012846D0012084F83C004FF062
:100F70000008C4F84080212084F83D00FFF7DCFB26
:100F8000A6848146E684A068B0F5805F03D004E0C3
:100F90000120BDE8F883206928B12E465FF00005E6
:100FA00084F83C800EE00026FAE78021204600F01D
:100FB0005BF9A0B9AEB116F8010B21684860E08C6E
:100FC000401EE084E08C4B464FF000020097002862
:100FD000EBD14FF04001204600F046F930B103203C
:100FE000D7E735F8020BC0F30800E6E7202084F8C5
:100FF0003D000020CDE70220CBE7FEE770B586B0CC
:1010000014216846FFF7A3F91E480024016841F047
:1010100004010160016801F004010591016841F0DB
:1010200080010160016801F080010591016841F0D3
:1010300002010160016801F002010591016841F0BF
:10104000400101600068104E00F0400044F281054C
:101050000590002229463046FFF769FB4FF4005007
:10106000CDE90004694609480294FFF717FA012008
:101070000095CDE90104694630460394FFF70EFA66
:1010800006B070BD30380240000402400008024043
:10109000FEE7FEE7704700004FF0640310B10E2238
:1010A00003A101E00F2206A10948FFF74DBF000090
:1010B000425554544F4E205052455353454400001E
:1010C000425554544F4E2052454C454153454400DF
:1010D000100000207047FFF735BB30B591B03021CC
:1010E0006846FFF734F914210CA8FFF730F9012006
:1010F00003900224102004900094002506940D20F3
:10110000CDE90750C320CDE9090405200B906846BE
:10111000FFF7A2FC08B172B6FEE70CA90F2081E828
:1011200031004FF4A0500F904FF4805010900321E5
:101130000CA8FFF793FB002801D072B6FEE711B0B0
:1011400030BD70472DE9F041044600680169E2684E
:1011500021F44051114301612169A068E26908430B
:101160006169114322680843D16849F20C639943CD
:101170000143D16020684169A26921F440711143A3
:10118000416137492068884202D03649884202D1FD
:10119000FFF71AFC01E0FFF7FFFB0246E36964205A
:1011A0003221B3F5004F02EBC20303EB0213626876
:1011B0002BD09200B3FBF2F5B5FBF0F5B3FBF2F6E2
:1011C0006FF018077D4306EB8505B3FBF2F601EBE4
:1011D0000515B5FBF0F5B6FBF0F605F0F00505EBEF
:1011E0000615B3FBF2F6B3FBF2F2B2FBF0F27A4370
:1011F00006EB820201EB0211B1FBF0F000F00F00F0
:10120000216828448860BDE8F0815200B3FBF2F603
:10121000B6FBF0F6B3FBF2F7B3FBF2F56FF0180C88
:1012200006FB0CF607EB860601EBC606B5FBF0F5F0
:10123000B6FBF0F62D0106F0F80605EB4605B3FB0C
:10124000F2F6B3FBF2F2B2FBF0F202FB0CF206EBA9
:10125000820201EBC201B1FBF0F000F00700CFE722
:1012600000100140001401402DE9F0419846174656
:101270000E460446069D1DE0681C1BD02DB1FFF7ED
:101280005BFAA0EB0800A84214D92068C16821F4D9
:10129000D071C1602068416921F0010141612020C5
:1012A00084F83D0084F83E00002084F83C000320D0
:1012B000BDE8F0812068006836EA000004D0002014
:1012C000B842D9D00020F3E70120F9E7FEE709078B
:1012D000090E002804DB00F1E02080F800147047BC
:1012E00000F00F0000F1E02080F8141D70470000AE
:1012F000FFF730FAFFF7F1FEFFF780FE2A48294991
:10130000002401604FF4E131C0E901140C21C460F4
:10131000C0E904418461C461FFF74EFD08B172B6B3
:10132000FEE7214EDFF88480DFF884A04FF0FF3520
:101330004FF4005744F29109443639464046FFF7CE
:10134000F1F900B10120854202D00546FFF7A4FE65
:1013500015496423322244311348FFF795FD1249A1
:1013600014A04431FFF71AF888B10F4913A0443193
:10137000FFF714F80028E0D1002249465046FFF755
:10138000D6F900203454401C3228FBDBD5E701227B
:1013900049465046FFF7CBF900203454401C322810
:1013A000FBDBCAE7001401401000002000080240E7
:1013B000000402404C4544204F4E00004C45442060
:1013C0004F46460000000000000000000102030438
:1013D000060708090000000001020304FC130008CE
:1013E0000000002010000000C00100080C140008DC
:1013F00010000020D8060000DC01000801000000F9
:0C14000010000000000000000024F400B8
:040000050800018569
:00000001FF
